:020000021000EC
:10F0000055C000006EC000006CC000006AC0000067
:10F0100068C0000066C0000064C0000062C000005C
:10F0200060C000005EC0000083C500005AC0000040
:10F0300058C0000056C0000054C0000052C000007C
:10F0400050C000004EC000004CC000004AC000008C
:10F0500049C0000046C0000044C0000042C000009B
:10F0600040C000003EC000003CC000003AC00000AC
:10F0700038C0000036C0000034C0000032C00000BC
:10F0800030C000002EC000002CC000002AC00000CC
:10F0900028C0000026C0000024C0000022C00000DC
:10F0A00020C000001EC000001CC0000011241FBEB4
:10F0B000CFEFDAE0DEBFCDBF11E0A0E0B1E0E4EFDA
:10F0C000FEEF02C005900D92A236B107D9F711E00C
:10F0D000A2E6B1E001C01D92AF37B107E1F7B8D3A6
:10F0E00007C78ECF1F920F920FB60F9211248F93E6
:10F0F0009F938BB190E389278BB99F918F910F904C
:10F100000FBE0F901F901895482F1CC02091F30040
:10F110008091F200322F20E090E0822B932B892BFC
:10F1200071F48091E8008B7F8093E80003C08EB378
:10F13000882351F08091E80082FFF9CF02C08091CE
:10F14000F1004150442311F708952091710130914D
:10F15000700180916F0190916E0180936301909393
:10F160006401C901809365019093660108951F931E
:10F17000DF93CF9300D000D000D0CDB7DEB7809121
:10F1800069018823D9F080916C01843049F4809121
:10F190006D01882339F480916E018F3F19F40EC000
:10F1A000853061F08AE08093000183E080936801FC
:10F1B0008091EB0080628093EB00E6C080916C014F
:10F1C000843009F458C0853030F4813059F08330F0
:10F1D00009F0DAC01DC0853009F4A3C0863009F0FB
:10F1E000D3C0C6C010916D01123008F0CDC0ADDFA4
:10F1F000112361F4809163019091640123E0FC018B
:10F2000020935700E89507B600FCFDCF85E008C0C5
:10F2100080916D01882311F0823029F496DF89E016
:10F2200080930001B1C0813009F0AEC020E030E031
:10F2300040E050E0F90184918F3F81F0CA01AA2794
:10F24000BB278093670130936401209363018AE0B8
:10F250008093000185E08093680196C02F5F3F4F47
:10F260004F4F5F4F2030F0EF3F07F1E04F07F0E0E6
:10F270005F0701F789C080916D01833051F581E00E
:10F28000809362018091720190917301892B71F0DA
:10F2900080916E01813009F077C080917101909169
:10F2A000700190936B0180936A016EC080916E0132
:10F2B000882361F42CE088E190E00FB6F894A895DB
:10F2C000809360000FBE209360005EC01092010129
:10F2D0005BC0882309F058C080916E018F3F09F010
:10F2E00053C080E090E0E0E0F0E033E025E03093D0
:10F2F0005700E89507B600FCFDCF20935700E8952E
:10F3000007B600FCFDCF0196E058FF4F43E0803E7A
:10F31000940769F781E180935700E895109269019D
:10F3200033C0DE011196E5E0F1E083E001900D923B
:10F330008150E1F7DE011496E2E0F1E083E0019014
:10F340000D928150E1F790916E0180916D018823BB
:10F3500029F4FE01E90FF11D818107C08130A1F47C
:10F36000FE01BC97E90FF11D8081809374010CC0F0
:10F3700080916D01833041F480916E01882321F4E6
:10F3800080916F018093670126960FB6F894DEBFD7
:10F390000FBECDBFCF91DF911F9108952F923F9265
:10F3A0004F925F926F927F928F929F92AF92BF9295
:10F3B000CF92DF92EF92FF920F931F93DF93CF9341
:10F3C00000D000D000D0CDB7DEB7809177018F7725
:10F3D000813209F024C28BB190E389278BB9009167
:10F3E0007D0110917E011093730100937201809151
:10F3F0007801833009F4DDC1843030F4813071F05C
:10F40000823009F00CC230C1853009F4F0C185307A
:10F4100008F4E5C1863009F002C2F8C18091E80025
:10F42000877F8093E80080916201882319F09FDE36
:10F43000109262010115110529F432C08EB38823A0
:10F4400009F4EDC18091E80082FFF8CF8091F100CE
:10F4500080936C01A8014150504050937301409338
:10F460007201EDE6F1E00CC08091F1008193415012
:10F47000504081E0E237F80719F4518340830FC010
:10F480002091F3008091F200322F20E090E0822B57
:10F49000932B892B49F7509373014093720167DED8
:10F4A00080910001853009F0DBC08091720190915C
:10F4B0007301892B21F482E080930001D1C08AE19D
:10F4C00023DEE0906301F09064018E2D8F711CDECD
:10F4D00060906501709066010894611C711C830145
:10F4E0000E191F0908946108710880916D01882325
:10F4F00009F0B1C0480196948794C701A0916701B3
:10F50000B0E0AC01BD01E2E0EE2EF12C012D112D99
:10F51000E40EF51E061F171F49835A836B837C83F5
:10F5200033244424439475E0572E63E0262E5BC0B9
:10F530002091F3008091F200322F20E090E0822BA6
:10F54000932B892B71F48091E8008B7F8093E800E6
:10F5500004C08EB3882309F462C18091E80082FF61
:10F56000F8CF0894810891088091F1008D838091F3
:10F57000F1008E83E981FA81AD80BE800501409261
:10F580005700E8951124339430E4B32E3B1419F05E
:10F5900081149104A1F4FA0150925700E89507B63E
:10F5A00000FCFDCF8114910451F0F7012092570027
:10F5B000E89507B600FCFDCFB801A701332422E08F
:10F5C000A22EB12CC12CD12CEA0CFB1C0C1D1D1D34
:10F5D00089819A81AB81BC810296A11DB11D89836D
:10F5E0009A83AB83BC838114910409F0A1CF7092FC
:10F5F00064016092630181E180935700E8952EC019
:10F600002091F3008091F200F22EEE2490E08E29FA
:10F610009F29892B71F48091E8008B7F8093E8000B
:10F6200004C08EB3882309F4FAC08091E80082FFF9
:10F63000F8CF6091F10080916301909164014AD408
:10F64000809163019091640101969093640180938D
:10F650006301015010400115110591F680E154DD60
:10F660008091E8008B7FCFC08091E800877F8093F6
:10F67000E80004C08EB3882309F4D1C08091E8006B
:10F6800080FFF8CF80910001893091F08A3069F4D1
:10F6900080916D01813049F4809163019091640102
:10F6A0008093F1009093F100ABC080917401A6C0EB
:10F6B000C0906501D0906601209163013091640192
:10F6C0000894C11CD11C7601E21AF30A0894C108FF
:10F6D000D10880916D018823C1F5870116950795A2
:10F6E000C901A0916701B0E0AC01BD0126C0209125
:10F6F000F3008091F200322F20E090E0822B932BD8
:10F70000809771F48091E8008E7F8093E80004C0B8
:10F710008EB3882309F483C08091E80080FFF8CF7E
:10F72000FA01859194918093F1009093F10001503A
:10F7300010404E5F5F4F6F4F7F4F01151105B9F6B7
:10F74000D0926401C092630130C0823071F52AC04A
:10F750002091F3008091F200D22ECC2490E08C29ED
:10F760009D29809771F48091E8008E7F8093E80056
:10F7700004C08EB3882309F452C08091E80080FF52
:10F78000F8CF0091630110916401C8019BD380936D
:10F79000F1000F5F1F4F1093640100936301089401
:10F7A000E108F108E114F10499F682E08093000188
:10F7B00027C08091E800877F8093E80080916801EE
:10F7C0008093F1001092F1001092F1001092F1007C
:10F7D000809100018093F1001092F10011C080919E
:10F7E000E800877F8093E8001092680117C080913D
:10F7F000E800877F8093E800809100018093F1000A
:10F800008091E8008E7F8093E80008C08091E80036
:10F81000877F8093E80082E080930001FBD02696EA
:10F820000FB6F894DEBF0FBECDBFCF91DF911F9111
:10F830000F91FF90EF90DF90CF90BF90AF909F908F
:10F840008F907F906F905F904F903F902F90089592
:10F850001F938C9A80E29EE40197F1F78FB1829515
:10F860008F708095817080930101882309F43EC0D8
:10F8700084B7877F84BF88E10FB6F89480936000D7
:10F88000109260000FBE80E090E020E80FB6F89480
:10F8900020936100809361000FBE11E015BF82E0EC
:10F8A00085BF2ED18AB1806F8AB98BB18F708BB929
:10F8B00010936F0083E0809381008BB18F70806123
:10F8C0008BB9789401C0F5D2809101018823D9F7D2
:10F8D000809162018823B9F7BCD08AB18F708AB950
:10F8E0008BB18F708BB981E085BF15BEE0916A0145
:10F8F000F0916B0109959B01AC0107B600FCFDCFAF
:10F90000F999FECF83E0F90180935700E89581E1F2
:10F9100080935700E89508959B01AC0107B600FC61
:10F92000FDCFF999FECF85E0F90180935700E89566
:10F9300081E180935700E89508950F931F938B0101
:10F940009C0107B600FCFDCFF999FECF81E0F801DC
:10F950000A0180935700E89511241F910F91089593
:10F9600021E2FC01209357002491822F089529E081
:10F97000FC01209357002491822F0895E1E0F0E0EC
:10F9800089E08093570084910895982F07B600FC72
:10F99000FDCFF999FECF909589E0E1E0F0E0092EE6
:10F9A00080935700E8950895FA01923071F09330F2
:10F9B00089F0913029F488E091E022E130E015C02F
:10F9C00080E090E020E030E010C08AE191E02BE19F
:10F9D00030E00BC0882329F485E391E024E030E097
:10F9E00004C089E391E026E230E091838083C9017D
:10F9F00008958091EB0081608093EB001092ED0000
:10FA00006093EC004093ED008091EE00881F882702
:10FA1000881F08958091770188238CF403C08EB3EA
:10FA20008823B1F08091E80082FFF9CF8091E8004F
:10FA30008B7F8093E80008958EB3882349F08091EE
:10FA4000E80080FFF9CF8091E8008E7F8093E80086
:10FA5000089561D068D0E0EEF0E08081816080831D
:10FA6000A8EDB0E08C918F778C9319BCE7EDF0E0B6
:10FA700080818E7F80838C918F7E8C931092760113
:10FA80000895EF92FF920F931F9345D04CD008ED4D
:10FA900010E0F80180818F77808380818068808387
:10FAA00080818F7D808319BC1EBA1092750180EE13
:10FAB000E82EF12CF70180818B7F8083F801808113
:10FAC0008160808380E060E042E293DFE1EEF0E07D
:10FAD00080818E7F8083E2EEF0E080818160808390
:10FAE000808188608083F70180818E7F8083F80128
:10FAF0008081806180831F910F91FF90EF90089526
:10FB0000E7EDF0E080818160808384E082BF81E066
:10FB100080937601B6CFE8EDF0E080818E7F808320
:10FB20001092E20008951092DA001092E100089518
:10FB30001F920F920FB60F9211242F933F934F9362
:10FB40005F936F937F938F939F93AF93BF93EF9345
:10FB5000FF938091DA0080FF1AC08091D80080FF67
:10FB600016C08091DA008E7F8093DA008091D900F0
:10FB700080FF0AC019BC82E089BD09B400FEFDCF38
:10FB800081E08EBB95D103C019BC1EBA91D1809182
:10FB9000E10080FF17C08091E20080FF13C08091D8
:10FBA000E2008E7F8093E2008091E200806180938A
:10FBB000E2008091D80080628093D80019BC85E073
:10FBC0008EBB76D18091E10084FF2BC08091E20052
:10FBD00084FF27C019BC82E089BD09B400FEFDCFB7
:10FBE0008091D8008F7D8093D8008091E1008F7E36
:10FBF0008093E1008091E2008F7E8093E20080910B
:10FC0000E20081608093E20080917501882331F4E5
:10FC10008091E30087FD02C081E001C084E08EBBDB
:10FC200047D18091E10083FF21C08091E20083FFF2
:10FC30001DC08091E100877F8093E10082E08EBB50
:10FC4000109275018091E1008E7F8093E100809198
:10FC5000E2008E7F8093E2008091E20080618093D9
:10FC6000E20080E060E042E2C4DE22D1FF91EF9149
:10FC7000BF91AF919F918F917F916F915F914F91C4
:10FC80003F912F910F900FBE0F901F9018959C01E0
:10FC900040917D0150917E014617570718F4F901F4
:10FCA00090E044C06115710511F0AB01F8CF80916F
:10FCB000E8008E7F8093E80040E050E0F0CF8EB304
:10FCC000882309F444C0853009F443C08091E800DA
:10FCD00083FF02C081E008958091E80082FD31C079
:10FCE0008091E80080FF22C08091F3009091F200A3
:10FCF000782F60E0292F30E0262B372B07C0819129
:10FD00008093F100415050402F5F3F4F4115510506
:10FD100019F02032310598F390E02032310509F4D2
:10FD200091E08091E8008E7F8093E80041155105B5
:10FD300031F6992321F605C08EB3882341F0853032
:10FD400041F08091E80082FFF7CF80E0089582E0E3
:10FD5000089583E008950F931F93DF93CF9300D00E
:10FD6000CDB7DEB7E7E7F1E08091F100819381E064
:10FD7000EF37F807C9F712DB8091E80083FF83C0F3
:10FD80009091770180917801863081F1873020F45D
:10FD9000853009F078C007C0883009F447C0893041
:10FDA00009F071C055C0992309F06DC01091790117
:10FDB0001F770FB7F8948091E800877F8093E80061
:10FDC00029DE8091E80080FFFCCF8091E3008078FD
:10FDD000812B8093E30080688093E300112311F46A
:10FDE00082E001C083E08EBB0FBF4DC090589230BF
:10FDF00008F049C08091790190917A0160917B016E
:10FE0000AE014F5F5F4FD0DDBC01009709F43BC0EE
:10FE10008091E800877F8093E80089819A8137DFAD
:10FE20008091E8008B7F8093E8002DC0903859F5D1
:10FE30008091E800877F8093E8008091750180932E
:10FE4000F1008091E8008E7F8093E800E3DD1BC025
:10FE50009923C9F4909179019230A8F48091E80037
:10FE6000877F8093E80090937501D4DD80917501C0
:10FE7000882331F48091E30087FD02C081E001C056
:10FE800084E08EBB15D08091E80083FF0AC080918A
:10FE9000EB0080628093EB008091E800877F809385
:10FEA000E8000F900F90CF91DF911F910F9108956F
:10FEB00008958EB3882329F08091E80083FF01C064
:10FEC0004ACF0895F999FECF92BD81BDF89A99273E
:10FED00080B50895262FF999FECF1FBA92BD81BD36
:10FEE00020BD0FB6F894FA9AF99A0FBE01960895BC
:04FEF000F894FFCFB4
:10FEF40002011E958720DCFB120110010000002086
:10FF0400EB03F42F00000001000109021B000101B2
:10FF14000080320904000000FE01020009210300F0
:10FF240000000C000104030904260341005600529A
:10FF3400002000440046005500200042006F006F7E
:10FF44000074006C006F00610064006500720000C2
:02FF54000000AB
:10FFE0008ACC9ACCAACCBCCCC2CCC8CCCECC00009B
:10FFF0000000000000000000000000000000FBDC2A
:040000031000F000F9
:00000001FF
